{
  "_format": "hh-sol-artifact-1",
  "contractName": "JustArtMarket",
  "sourceName": "contracts/justArtMarket.sol",
  "abi": [
    {
      "inputs": [
        {
          "internalType": "uint256",
          "name": "_marketFeePercentage",
          "type": "uint256"
        }
      ],
      "stateMutability": "nonpayable",
      "type": "constructor"
    },
    {
      "anonymous": false,
      "inputs": [
        {
          "indexed": true,
          "internalType": "address",
          "name": "owner",
          "type": "address"
        },
        {
          "indexed": true,
          "internalType": "address",
          "name": "approved",
          "type": "address"
        },
        {
          "indexed": true,
          "internalType": "uint256",
          "name": "tokenId",
          "type": "uint256"
        }
      ],
      "name": "Approval",
      "type": "event"
    },
    {
      "anonymous": false,
      "inputs": [
        {
          "indexed": true,
          "internalType": "address",
          "name": "owner",
          "type": "address"
        },
        {
          "indexed": true,
          "internalType": "address",
          "name": "operator",
          "type": "address"
        },
        {
          "indexed": false,
          "internalType": "bool",
          "name": "approved",
          "type": "bool"
        }
      ],
      "name": "ApprovalForAll",
      "type": "event"
    },
    {
      "anonymous": false,
      "inputs": [
        {
          "indexed": true,
          "internalType": "address",
          "name": "owner",
          "type": "address"
        },
        {
          "indexed": false,
          "internalType": "string",
          "name": "itemStringId",
          "type": "string"
        },
        {
          "indexed": false,
          "internalType": "uint256",
          "name": "price",
          "type": "uint256"
        }
      ],
      "name": "ItemCreated",
      "type": "event"
    },
    {
      "anonymous": false,
      "inputs": [
        {
          "indexed": true,
          "internalType": "address",
          "name": "owner",
          "type": "address"
        },
        {
          "indexed": false,
          "internalType": "string",
          "name": "itemStringId",
          "type": "string"
        },
        {
          "indexed": false,
          "internalType": "uint256",
          "name": "price",
          "type": "uint256"
        }
      ],
      "name": "ItemRelisted",
      "type": "event"
    },
    {
      "anonymous": false,
      "inputs": [
        {
          "indexed": true,
          "internalType": "address",
          "name": "owner",
          "type": "address"
        },
        {
          "indexed": false,
          "internalType": "string",
          "name": "itemStringId",
          "type": "string"
        }
      ],
      "name": "ItemRemoved",
      "type": "event"
    },
    {
      "anonymous": false,
      "inputs": [
        {
          "indexed": true,
          "internalType": "address",
          "name": "buyer",
          "type": "address"
        },
        {
          "indexed": false,
          "internalType": "string",
          "name": "itemStringId",
          "type": "string"
        },
        {
          "indexed": false,
          "internalType": "uint256",
          "name": "price",
          "type": "uint256"
        }
      ],
      "name": "ItemSold",
      "type": "event"
    },
    {
      "anonymous": false,
      "inputs": [
        {
          "indexed": false,
          "internalType": "address",
          "name": "owner",
          "type": "address"
        },
        {
          "indexed": false,
          "internalType": "uint256",
          "name": "newPercentage",
          "type": "uint256"
        }
      ],
      "name": "NewMarketFee",
      "type": "event"
    },
    {
      "anonymous": false,
      "inputs": [
        {
          "indexed": true,
          "internalType": "address",
          "name": "previousOwner",
          "type": "address"
        },
        {
          "indexed": true,
          "internalType": "address",
          "name": "newOwner",
          "type": "address"
        }
      ],
      "name": "OwnershipTransferred",
      "type": "event"
    },
    {
      "anonymous": false,
      "inputs": [
        {
          "indexed": true,
          "internalType": "address",
          "name": "from",
          "type": "address"
        },
        {
          "indexed": true,
          "internalType": "address",
          "name": "to",
          "type": "address"
        },
        {
          "indexed": true,
          "internalType": "uint256",
          "name": "tokenId",
          "type": "uint256"
        }
      ],
      "name": "Transfer",
      "type": "event"
    },
    {
      "inputs": [
        {
          "internalType": "uint256",
          "name": "",
          "type": "uint256"
        }
      ],
      "name": "Items",
      "outputs": [
        {
          "internalType": "string",
          "name": "id",
          "type": "string"
        },
        {
          "internalType": "uint256",
          "name": "price",
          "type": "uint256"
        },
        {
          "internalType": "string",
          "name": "location",
          "type": "string"
        },
        {
          "internalType": "address",
          "name": "owner",
          "type": "address"
        },
        {
          "internalType": "bool",
          "name": "isItemListed",
          "type": "bool"
        }
      ],
      "stateMutability": "view",
      "type": "function"
    },
    {
      "inputs": [
        {
          "internalType": "string",
          "name": "_itemStringId",
          "type": "string"
        },
        {
          "internalType": "string",
          "name": "_uri",
          "type": "string"
        },
        {
          "internalType": "string",
          "name": "_location",
          "type": "string"
        },
        {
          "internalType": "uint256",
          "name": "_price",
          "type": "uint256"
        }
      ],
      "name": "addNewItem",
      "outputs": [],
      "stateMutability": "nonpayable",
      "type": "function"
    },
    {
      "inputs": [
        {
          "internalType": "address",
          "name": "to",
          "type": "address"
        },
        {
          "internalType": "uint256",
          "name": "tokenId",
          "type": "uint256"
        }
      ],
      "name": "approve",
      "outputs": [],
      "stateMutability": "nonpayable",
      "type": "function"
    },
    {
      "inputs": [
        {
          "internalType": "address",
          "name": "",
          "type": "address"
        }
      ],
      "name": "balance",
      "outputs": [
        {
          "internalType": "uint256",
          "name": "",
          "type": "uint256"
        }
      ],
      "stateMutability": "view",
      "type": "function"
    },
    {
      "inputs": [
        {
          "internalType": "address",
          "name": "owner",
          "type": "address"
        }
      ],
      "name": "balanceOf",
      "outputs": [
        {
          "internalType": "uint256",
          "name": "",
          "type": "uint256"
        }
      ],
      "stateMutability": "view",
      "type": "function"
    },
    {
      "inputs": [
        {
          "internalType": "uint256",
          "name": "_itemTokenId",
          "type": "uint256"
        }
      ],
      "name": "buyItems",
      "outputs": [],
      "stateMutability": "payable",
      "type": "function"
    },
    {
      "inputs": [
        {
          "internalType": "uint256",
          "name": "",
          "type": "uint256"
        }
      ],
      "name": "exists",
      "outputs": [
        {
          "internalType": "bool",
          "name": "",
          "type": "bool"
        }
      ],
      "stateMutability": "view",
      "type": "function"
    },
    {
      "inputs": [
        {
          "internalType": "uint256",
          "name": "tokenId",
          "type": "uint256"
        }
      ],
      "name": "getApproved",
      "outputs": [
        {
          "internalType": "address",
          "name": "",
          "type": "address"
        }
      ],
      "stateMutability": "view",
      "type": "function"
    },
    {
      "inputs": [],
      "name": "getItemCounts",
      "outputs": [
        {
          "internalType": "uint256",
          "name": "",
          "type": "uint256"
        }
      ],
      "stateMutability": "view",
      "type": "function"
    },
    {
      "inputs": [
        {
          "internalType": "uint256",
          "name": "_itemTokenId",
          "type": "uint256"
        }
      ],
      "name": "getItemFromID",
      "outputs": [
        {
          "components": [
            {
              "internalType": "string",
              "name": "id",
              "type": "string"
            },
            {
              "internalType": "uint256",
              "name": "price",
              "type": "uint256"
            },
            {
              "internalType": "string",
              "name": "location",
              "type": "string"
            },
            {
              "internalType": "address",
              "name": "owner",
              "type": "address"
            },
            {
              "internalType": "bool",
              "name": "isItemListed",
              "type": "bool"
            },
            {
              "components": [
                {
                  "internalType": "uint256",
                  "name": "id",
                  "type": "uint256"
                },
                {
                  "internalType": "enum JustArtMarket.Type",
                  "name": "tranType",
                  "type": "uint8"
                },
                {
                  "internalType": "address",
                  "name": "from",
                  "type": "address"
                },
                {
                  "internalType": "uint256",
                  "name": "price",
                  "type": "uint256"
                },
                {
                  "internalType": "uint256",
                  "name": "createdAt",
                  "type": "uint256"
                }
              ],
              "internalType": "struct JustArtMarket.Transaction[]",
              "name": "history",
              "type": "tuple[]"
            }
          ],
          "internalType": "struct JustArtMarket.Item",
          "name": "",
          "type": "tuple"
        }
      ],
      "stateMutability": "view",
      "type": "function"
    },
    {
      "inputs": [],
      "name": "getMarketFee",
      "outputs": [
        {
          "internalType": "uint256",
          "name": "",
          "type": "uint256"
        }
      ],
      "stateMutability": "view",
      "type": "function"
    },
    {
      "inputs": [
        {
          "internalType": "address",
          "name": "_user",
          "type": "address"
        }
      ],
      "name": "getUserItems",
      "outputs": [
        {
          "components": [
            {
              "internalType": "string",
              "name": "id",
              "type": "string"
            },
            {
              "internalType": "uint256",
              "name": "price",
              "type": "uint256"
            },
            {
              "internalType": "string",
              "name": "location",
              "type": "string"
            },
            {
              "internalType": "address",
              "name": "owner",
              "type": "address"
            },
            {
              "internalType": "bool",
              "name": "isItemListed",
              "type": "bool"
            },
            {
              "components": [
                {
                  "internalType": "uint256",
                  "name": "id",
                  "type": "uint256"
                },
                {
                  "internalType": "enum JustArtMarket.Type",
                  "name": "tranType",
                  "type": "uint8"
                },
                {
                  "internalType": "address",
                  "name": "from",
                  "type": "address"
                },
                {
                  "internalType": "uint256",
                  "name": "price",
                  "type": "uint256"
                },
                {
                  "internalType": "uint256",
                  "name": "createdAt",
                  "type": "uint256"
                }
              ],
              "internalType": "struct JustArtMarket.Transaction[]",
              "name": "history",
              "type": "tuple[]"
            }
          ],
          "internalType": "struct JustArtMarket.Item[]",
          "name": "",
          "type": "tuple[]"
        }
      ],
      "stateMutability": "view",
      "type": "function"
    },
    {
      "inputs": [
        {
          "internalType": "address",
          "name": "owner",
          "type": "address"
        },
        {
          "internalType": "address",
          "name": "operator",
          "type": "address"
        }
      ],
      "name": "isApprovedForAll",
      "outputs": [
        {
          "internalType": "bool",
          "name": "",
          "type": "bool"
        }
      ],
      "stateMutability": "view",
      "type": "function"
    },
    {
      "inputs": [
        {
          "internalType": "string",
          "name": "",
          "type": "string"
        }
      ],
      "name": "itemStringIds",
      "outputs": [
        {
          "internalType": "uint256",
          "name": "",
          "type": "uint256"
        }
      ],
      "stateMutability": "view",
      "type": "function"
    },
    {
      "inputs": [
        {
          "internalType": "string",
          "name": "_itemStringId",
          "type": "string"
        }
      ],
      "name": "lookUpStringId",
      "outputs": [
        {
          "internalType": "uint256",
          "name": "",
          "type": "uint256"
        }
      ],
      "stateMutability": "view",
      "type": "function"
    },
    {
      "inputs": [],
      "name": "name",
      "outputs": [
        {
          "internalType": "string",
          "name": "",
          "type": "string"
        }
      ],
      "stateMutability": "view",
      "type": "function"
    },
    {
      "inputs": [],
      "name": "owner",
      "outputs": [
        {
          "internalType": "address",
          "name": "",
          "type": "address"
        }
      ],
      "stateMutability": "view",
      "type": "function"
    },
    {
      "inputs": [
        {
          "internalType": "uint256",
          "name": "tokenId",
          "type": "uint256"
        }
      ],
      "name": "ownerOf",
      "outputs": [
        {
          "internalType": "address",
          "name": "",
          "type": "address"
        }
      ],
      "stateMutability": "view",
      "type": "function"
    },
    {
      "inputs": [
        {
          "internalType": "uint256",
          "name": "_itemTokenId",
          "type": "uint256"
        },
        {
          "internalType": "string",
          "name": "_newLocation",
          "type": "string"
        },
        {
          "internalType": "uint256",
          "name": "_price",
          "type": "uint256"
        }
      ],
      "name": "relistItem",
      "outputs": [],
      "stateMutability": "nonpayable",
      "type": "function"
    },
    {
      "inputs": [],
      "name": "renounceOwnership",
      "outputs": [],
      "stateMutability": "nonpayable",
      "type": "function"
    },
    {
      "inputs": [
        {
          "internalType": "address",
          "name": "from",
          "type": "address"
        },
        {
          "internalType": "address",
          "name": "to",
          "type": "address"
        },
        {
          "internalType": "uint256",
          "name": "tokenId",
          "type": "uint256"
        }
      ],
      "name": "safeTransferFrom",
      "outputs": [],
      "stateMutability": "nonpayable",
      "type": "function"
    },
    {
      "inputs": [
        {
          "internalType": "address",
          "name": "from",
          "type": "address"
        },
        {
          "internalType": "address",
          "name": "to",
          "type": "address"
        },
        {
          "internalType": "uint256",
          "name": "tokenId",
          "type": "uint256"
        },
        {
          "internalType": "bytes",
          "name": "data",
          "type": "bytes"
        }
      ],
      "name": "safeTransferFrom",
      "outputs": [],
      "stateMutability": "nonpayable",
      "type": "function"
    },
    {
      "inputs": [
        {
          "internalType": "address",
          "name": "operator",
          "type": "address"
        },
        {
          "internalType": "bool",
          "name": "approved",
          "type": "bool"
        }
      ],
      "name": "setApprovalForAll",
      "outputs": [],
      "stateMutability": "nonpayable",
      "type": "function"
    },
    {
      "inputs": [
        {
          "internalType": "bytes4",
          "name": "interfaceId",
          "type": "bytes4"
        }
      ],
      "name": "supportsInterface",
      "outputs": [
        {
          "internalType": "bool",
          "name": "",
          "type": "bool"
        }
      ],
      "stateMutability": "view",
      "type": "function"
    },
    {
      "inputs": [],
      "name": "symbol",
      "outputs": [
        {
          "internalType": "string",
          "name": "",
          "type": "string"
        }
      ],
      "stateMutability": "view",
      "type": "function"
    },
    {
      "inputs": [
        {
          "internalType": "uint256",
          "name": "index",
          "type": "uint256"
        }
      ],
      "name": "tokenByIndex",
      "outputs": [
        {
          "internalType": "uint256",
          "name": "",
          "type": "uint256"
        }
      ],
      "stateMutability": "view",
      "type": "function"
    },
    {
      "inputs": [
        {
          "internalType": "address",
          "name": "owner",
          "type": "address"
        },
        {
          "internalType": "uint256",
          "name": "index",
          "type": "uint256"
        }
      ],
      "name": "tokenOfOwnerByIndex",
      "outputs": [
        {
          "internalType": "uint256",
          "name": "",
          "type": "uint256"
        }
      ],
      "stateMutability": "view",
      "type": "function"
    },
    {
      "inputs": [
        {
          "internalType": "uint256",
          "name": "tokenId",
          "type": "uint256"
        }
      ],
      "name": "tokenURI",
      "outputs": [
        {
          "internalType": "string",
          "name": "",
          "type": "string"
        }
      ],
      "stateMutability": "view",
      "type": "function"
    },
    {
      "inputs": [],
      "name": "totalSupply",
      "outputs": [
        {
          "internalType": "uint256",
          "name": "",
          "type": "uint256"
        }
      ],
      "stateMutability": "view",
      "type": "function"
    },
    {
      "inputs": [
        {
          "internalType": "address",
          "name": "from",
          "type": "address"
        },
        {
          "internalType": "address",
          "name": "to",
          "type": "address"
        },
        {
          "internalType": "uint256",
          "name": "tokenId",
          "type": "uint256"
        }
      ],
      "name": "transferFrom",
      "outputs": [],
      "stateMutability": "nonpayable",
      "type": "function"
    },
    {
      "inputs": [
        {
          "internalType": "address",
          "name": "newOwner",
          "type": "address"
        }
      ],
      "name": "transferOwnership",
      "outputs": [],
      "stateMutability": "nonpayable",
      "type": "function"
    },
    {
      "inputs": [
        {
          "internalType": "uint256",
          "name": "_itemTokenId",
          "type": "uint256"
        }
      ],
      "name": "unlistItem",
      "outputs": [],
      "stateMutability": "nonpayable",
      "type": "function"
    },
    {
      "inputs": [
        {
          "internalType": "uint256",
          "name": "newPercentage",
          "type": "uint256"
        }
      ],
      "name": "updateMarketFeePercentage",
      "outputs": [],
      "stateMutability": "nonpayable",
      "type": "function"
    },
    {
      "inputs": [
        {
          "internalType": "address",
          "name": "",
          "type": "address"
        },
        {
          "internalType": "uint256",
          "name": "",
          "type": "uint256"
        }
      ],
      "name": "userItems",
      "outputs": [
        {
          "internalType": "string",
          "name": "",
          "type": "string"
        }
      ],
      "stateMutability": "view",
      "type": "function"
    }
  ],
  "bytecode": "0x60806040523480156200001157600080fd5b5060405162004b7138038062004b718339810160408190526200003491620001cc565b6040518060400160405280600d81526020016c353ab9ba20b93a102a37b5b2b760991b8152506040518060400160405280600a8152602001693520a92a102a37b5b2b760b11b8152506200009762000091620000d260201b60201c565b620000d6565b600180558151620000b090600290602085019062000126565b508051620000c690600390602084019062000126565b505050600e556200022c565b3390565b600080546001600160a01b038381166001600160a01b0319831681178455604051919092169283917f8be0079c531659141344cd1fd0a4f28419497f9722a3daafe3b4186f6b6457e09190a35050565b8280546200013490620001e5565b90600052602060002090601f016020900481019282620001585760008555620001a3565b82601f106200017357805160ff1916838001178555620001a3565b82800160010185558215620001a3579182015b82811115620001a357825182559160200191906001019062000186565b50620001b1929150620001b5565b5090565b5b80821115620001b15760008155600101620001b6565b600060208284031215620001de578081fd5b0151919050565b600281046001821680620001fa57607f821691505b6020821081141562000210576200021062000216565b50919050565b634e487b7160e01b600052602260045260246000fd5b614935806200023c6000396000f3fe6080604052600436106102195760003560e01c806370a082311161011d578063bc22aa5b116100b0578063d9707d1a1161007f578063e60e711311610064578063e60e711314610655578063e985e9c514610675578063f2fde38b146106cb57600080fd5b8063d9707d1a146105fb578063e3d670d71461062857600080fd5b8063bc22aa5b14610556578063c87b56dd14610576578063cbcc9bea14610596578063ce6019b4146105ce57600080fd5b8063a22cb465116100ec578063a22cb465146104e1578063a815a85d14610501578063b43e46ca14610516578063b88d4fde1461053657600080fd5b806370a082311461046c578063715018a61461048c5780638da5cb5b146104a157806395d89b41146104cc57600080fd5b806342842e0e116101b05780635a599da81161017f5780635e123add116101645780635e123add14610424578063631f6d07146104395780636352211e1461044c57600080fd5b80635a599da8146103e45780635c3bd1411461040457600080fd5b806342842e0e146103545780634f558e79146103745780634f6ccce7146103a45780635299df1b146103c457600080fd5b806317b47cc4116101ec57806317b47cc4146102c557806318160ddd146102f657806323b872dd146103145780632f745c591461033457600080fd5b806301ffc9a71461021e57806306fdde0314610254578063081812fc14610276578063095ea7b3146102a3575b600080fd5b34801561022a57600080fd5b5061023e6102393660046137f4565b6106eb565b60405161024b9190614339565b60405180910390f35b34801561026057600080fd5b506102696106fc565b60405161024b9190614347565b34801561028257600080fd5b506102966102913660046138fd565b61078e565b60405161024b91906142bb565b3480156102af57600080fd5b506102c36102be3660046137c6565b6107c2565b005b3480156102d157600080fd5b506102e56102e03660046138fd565b6108ac565b60405161024b959493929190614358565b34801561030257600080fd5b50600a545b60405161024b9190614568565b34801561032057600080fd5b506102c361032f3660046136d7565b610a18565b34801561034057600080fd5b5061030761034f3660046137c6565b610a63565b34801561036057600080fd5b506102c361036f3660046136d7565b610adc565b34801561038057600080fd5b5061023e61038f3660046138fd565b60116020526000908152604090205460ff1681565b3480156103b057600080fd5b506103076103bf3660046138fd565b610af7565b3480156103d057600080fd5b506102c36103df366004613863565b610b86565b3480156103f057600080fd5b506102c36103ff3660046138fd565b610d5c565b34801561041057600080fd5b5061026961041f3660046137c6565b610f03565b34801561043057600080fd5b50600e54610307565b6102c36104473660046138fd565b610fbc565b34801561045857600080fd5b506102966104673660046138fd565b6112eb565b34801561047857600080fd5b50610307610487366004613682565b611347565b34801561049857600080fd5b506102c36113bf565b3480156104ad57600080fd5b5060005473ffffffffffffffffffffffffffffffffffffffff16610296565b3480156104d857600080fd5b506102696113d3565b3480156104ed57600080fd5b506102c36104fc366004613798565b6113e2565b34801561050d57600080fd5b506103076113f1565b34801561052257600080fd5b506102c361053136600461391a565b611401565b34801561054257600080fd5b506102c3610551366004613722565b6115c8565b34801561056257600080fd5b5061030761057136600461382e565b61161a565b34801561058257600080fd5b506102696105913660046138fd565b611642565b3480156105a257600080fd5b506103076105b136600461382e565b805160208183018101805160108252928201919093012091525481565b3480156105da57600080fd5b506105ee6105e9366004613682565b61164d565b60405161024b9190614328565b34801561060757600080fd5b5061061b6106163660046138fd565b611c5d565b60405161024b9190614557565b34801561063457600080fd5b50610307610643366004613682565b60126020526000908152604090205481565b34801561066157600080fd5b506102c36106703660046138fd565b611fa0565b34801561068157600080fd5b5061023e61069036600461369f565b73ffffffffffffffffffffffffffffffffffffffff918216600090815260076020908152604080832093909416825291909152205460ff1690565b3480156106d757600080fd5b506102c36106e6366004613682565b612025565b60006106f682612086565b92915050565b60606002805461070b906146fb565b80601f0160208091040260200160405190810160405280929190818152602001828054610737906146fb565b80156107845780601f1061075957610100808354040283529160200191610784565b820191906000526020600020905b81548152906001019060200180831161076757829003601f168201915b5050505050905090565b6000610799826120dc565b5060009081526006602052604090205473ffffffffffffffffffffffffffffffffffffffff1690565b60006107cd826112eb565b90508073ffffffffffffffffffffffffffffffffffffffff168373ffffffffffffffffffffffffffffffffffffffff16141561083e576040517f08c379a000000000000000000000000000000000000000000000000000000000815260040161083590614507565b60405180910390fd5b3373ffffffffffffffffffffffffffffffffffffffff8216148061086757506108678133610690565b61089d576040517f08c379a0000000000000000000000000000000000000000000000000000000008152600401610835906144c7565b6108a78383612137565b505050565b600f602052600090815260409020805481906108c7906146fb565b80601f01602080910402602001604051908101604052809291908181526020018280546108f3906146fb565b80156109405780601f1061091557610100808354040283529160200191610940565b820191906000526020600020905b81548152906001019060200180831161092357829003601f168201915b50505050509080600101549080600201805461095b906146fb565b80601f0160208091040260200160405190810160405280929190818152602001828054610987906146fb565b80156109d45780601f106109a9576101008083540402835291602001916109d4565b820191906000526020600020905b8154815290600101906020018083116109b757829003601f168201915b5050506003909301549192505073ffffffffffffffffffffffffffffffffffffffff81169060ff740100000000000000000000000000000000000000009091041685565b610a2233826121d7565b610a58576040517f08c379a000000000000000000000000000000000000000000000000000000000815260040161083590614537565b6108a7838383612297565b6000610a6e83611347565b8210610aa6576040517f08c379a0000000000000000000000000000000000000000000000000000000008152600401610835906143e7565b5073ffffffffffffffffffffffffffffffffffffffff919091166000908152600860209081526040808320938352929052205490565b6108a7838383604051806020016040528060008152506115c8565b6000610b02600a5490565b8210610b3a576040517f08c379a000000000000000000000000000000000000000000000000000000000815260040161083590614527565b600a8281548110610b74577f4e487b7100000000000000000000000000000000000000000000000000000000600052603260045260246000fd5b90600052602060002001549050919050565b6000610b91600d5490565b905080601086604051610ba4919061429b565b90815260405190819003602001902055610bbe818561245e565b6000818152600f6020908152604090912086519091610be1918391890190613400565b506003810180547fffffffffffffffffffffffff000000000000000000000000000000000000000016331790558351610c239060028301906020870190613400565b50600181018390556003810180547fffffffffffffffffffffff00ffffffffffffffffffffffffffffffffffffffff1674010000000000000000000000000000000000000000179055610c77333084612297565b610c82826001612472565b336000908152601260205260408120805491610c9d8361476d565b9091555050600082815260116020908152604080832080547fffffffffffffffffffffffffffffffffffffffffffffffffffffffffffffff0016600190811790915533845260138352908320805491820181558352918190208851610d09939190910191890190613400565b50610d18600d80546001019055565b60405133907fe92a510f193b252a4f814e752097217cd0f1e42ef3ee3450b09ccaa8e955109890610d4c90849087906143b7565b60405180910390a2505050505050565b600081815260116020526040902054819060ff16610da6576040517f08c379a000000000000000000000000000000000000000000000000000000000815260040161083590614477565b6000828152600f6020526040902060030154829073ffffffffffffffffffffffffffffffffffffffff163314610e08576040517f08c379a000000000000000000000000000000000000000000000000000000000815260040161083590614487565b6000838152600f6020526040902060030154839074010000000000000000000000000000000000000000900460ff16610e6d576040517f08c379a000000000000000000000000000000000000000000000000000000000815260040161083590614497565b6000848152600f60205260409020610e86303387612297565b6003810180547fffffffffffffffffffffff00ffffffffffffffffffffffffffffffffffffffff16905560006001820155610ec2856002612472565b60405133907f04f60a2088b6d2261ab6ef9f840156e2dc2e60cf543123e232a0d0112b12c0b790610ef49084906143a6565b60405180910390a25050505050565b60136020528160005260406000208181548110610f1f57600080fd5b90600052602060002001600091509150508054610f3b906146fb565b80601f0160208091040260200160405190810160405280929190818152602001828054610f67906146fb565b8015610fb45780601f10610f8957610100808354040283529160200191610fb4565b820191906000526020600020905b815481529060010190602001808311610f9757829003601f168201915b505050505081565b600081815260116020526040902054819060ff16611006576040517f08c379a000000000000000000000000000000000000000000000000000000000815260040161083590614477565b6000828152600f6020526040902060030154829074010000000000000000000000000000000000000000900460ff1661106b576040517f08c379a000000000000000000000000000000000000000000000000000000000815260040161083590614497565b600260015414156110a8576040517f08c379a000000000000000000000000000000000000000000000000000000000815260040161083590614547565b600260019081556000848152600f602052604090209081015434146110f9576040517f08c379a000000000000000000000000000000000000000000000000000000000815260040161083590614447565b6000611104856125f1565b905060008183600101546111189190614644565b905061113960005473ffffffffffffffffffffffffffffffffffffffff1690565b73ffffffffffffffffffffffffffffffffffffffff166108fc839081150290604051600060405180830381858888f1935050505015801561117e573d6000803e3d6000fd5b50600383015460405173ffffffffffffffffffffffffffffffffffffffff9091169082156108fc029083906000818181858888f193505050501580156111c8573d6000803e3d6000fd5b506111d4303388612297565b33600090815260136020908152604082208054600181018255908352912084549101908490611202906146fb565b61120d929190613484565b503360009081526012602052604081208054916112298361476d565b9091555050600383015473ffffffffffffffffffffffffffffffffffffffff166000908152601260205260408120805491611263836146c6565b9091555050600380840180547fffffffffffffffffffffff00000000000000000000000000000000000000000016331790556112a0908790612472565b600183015460405133917fe93b1f7dfb2e21418b0b20d036f8f8dabe40abf7666a6fc7ec5c3b34409ad473916112d79187916143b7565b60405180910390a250506001805550505050565b60008181526004602052604081205473ffffffffffffffffffffffffffffffffffffffff16806106f6576040517f08c379a0000000000000000000000000000000000000000000000000000000008152600401610835906144f7565b600073ffffffffffffffffffffffffffffffffffffffff8216611396576040517f08c379a0000000000000000000000000000000000000000000000000000000008152600401610835906144a7565b5073ffffffffffffffffffffffffffffffffffffffff1660009081526005602052604090205490565b6113c76126d6565b6113d16000612727565b565b60606003805461070b906146fb565b6113ed33838361279c565b5050565b60006113fc600d5490565b905090565b600084815260116020526040902054849060ff1661144b576040517f08c379a000000000000000000000000000000000000000000000000000000000815260040161083590614477565b6000858152600f6020526040902060030154859073ffffffffffffffffffffffffffffffffffffffff1633146114ad576040517f08c379a000000000000000000000000000000000000000000000000000000000815260040161083590614487565b6000868152600f60205260409020600381015474010000000000000000000000000000000000000000900460ff1615611512576040517f08c379a000000000000000000000000000000000000000000000000000000000815260040161083590614517565b61151d333089612297565b61152b6002820187876134ff565b5060018082018590556003820180547fffffffffffffffffffffff00ffffffffffffffffffffffffffffffffffffffff1674010000000000000000000000000000000000000000179055611580908890612472565b600181015460405133917fc88d9d1d187e9c7c6b43aa26315dcb8e153d26d2a38b8ee50a4f831fd3da3205916115b79185916143b7565b60405180910390a250505050505050565b6115d233836121d7565b611608576040517f08c379a000000000000000000000000000000000000000000000000000000000815260040161083590614537565b6116148484848461289e565b50505050565b600060108260405161162c919061429b565b9081526020016040518091039020549050919050565b60606106f6826128eb565b606073ffffffffffffffffffffffffffffffffffffffff821661169c576040517f08c379a0000000000000000000000000000000000000000000000000000000008152600401610835906143d7565b73ffffffffffffffffffffffffffffffffffffffff821660009081526012602052604081205467ffffffffffffffff811115611701577f4e487b7100000000000000000000000000000000000000000000000000000000600052604160045260246000fd5b60405190808252806020026020018201604052801561178357816020015b6117706040518060c00160405280606081526020016000815260200160608152602001600073ffffffffffffffffffffffffffffffffffffffff168152602001600015158152602001606081525090565b81526020019060019003908161171f5790505b5090506000805b73ffffffffffffffffffffffffffffffffffffffff8516600090815260136020526040902054811015611c545773ffffffffffffffffffffffffffffffffffffffff85166000908152601360205260408120805483908110611815577f4e487b7100000000000000000000000000000000000000000000000000000000600052603260045260246000fd5b90600052602060002001805461182a906146fb565b80601f0160208091040260200160405190810160405280929190818152602001828054611856906146fb565b80156118a35780601f10611878576101008083540402835291602001916118a3565b820191906000526020600020905b81548152906001019060200180831161188657829003601f168201915b5050505050905060006010826040516118bc919061429b565b90815260408051918290036020908101909220546000818152600f90935291206003015490915073ffffffffffffffffffffffffffffffffffffffff16331415611c3f576000818152600f602052604090819020815160c08101909252805482908290611928906146fb565b80601f0160208091040260200160405190810160405280929190818152602001828054611954906146fb565b80156119a15780601f10611976576101008083540402835291602001916119a1565b820191906000526020600020905b81548152906001019060200180831161198457829003601f168201915b50505050508152602001600182015481526020016002820180546119c4906146fb565b80601f01602080910402602001604051908101604052809291908181526020018280546119f0906146fb565b8015611a3d5780601f10611a1257610100808354040283529160200191611a3d565b820191906000526020600020905b815481529060010190602001808311611a2057829003601f168201915b5050509183525050600382015473ffffffffffffffffffffffffffffffffffffffff81166020808401919091527401000000000000000000000000000000000000000090910460ff161515604080840191909152600484018054825181850281018501909352808352606090940193919290919060009084015b82821015611be457838290600052602060002090600402016040518060a0016040529081600082015481526020016001820160009054906101000a900460ff166003811115611b2f577f4e487b7100000000000000000000000000000000000000000000000000000000600052602160045260246000fd5b6003811115611b67577f4e487b7100000000000000000000000000000000000000000000000000000000600052602160045260246000fd5b81526020016001820160019054906101000a900473ffffffffffffffffffffffffffffffffffffffff1673ffffffffffffffffffffffffffffffffffffffff1673ffffffffffffffffffffffffffffffffffffffff1681526020016002820154815260200160038201548152505081526020019060010190611ab7565b5050505081525050858581518110611c25577f4e487b7100000000000000000000000000000000000000000000000000000000600052603260045260246000fd5b60200260200101819052508380611c3b9061476d565b9450505b50508080611c4c9061476d565b91505061178a565b50909392505050565b611cae6040518060c00160405280606081526020016000815260200160608152602001600073ffffffffffffffffffffffffffffffffffffffff168152602001600015158152602001606081525090565b6000828152600f602052604090819020815160c08101909252805482908290611cd6906146fb565b80601f0160208091040260200160405190810160405280929190818152602001828054611d02906146fb565b8015611d4f5780601f10611d2457610100808354040283529160200191611d4f565b820191906000526020600020905b815481529060010190602001808311611d3257829003601f168201915b5050505050815260200160018201548152602001600282018054611d72906146fb565b80601f0160208091040260200160405190810160405280929190818152602001828054611d9e906146fb565b8015611deb5780601f10611dc057610100808354040283529160200191611deb565b820191906000526020600020905b815481529060010190602001808311611dce57829003601f168201915b5050509183525050600382015473ffffffffffffffffffffffffffffffffffffffff81166020808401919091527401000000000000000000000000000000000000000090910460ff161515604080840191909152600484018054825181850281018501909352808352606090940193919290919060009084015b82821015611f9257838290600052602060002090600402016040518060a0016040529081600082015481526020016001820160009054906101000a900460ff166003811115611edd577f4e487b7100000000000000000000000000000000000000000000000000000000600052602160045260246000fd5b6003811115611f15577f4e487b7100000000000000000000000000000000000000000000000000000000600052602160045260246000fd5b81526020016001820160019054906101000a900473ffffffffffffffffffffffffffffffffffffffff1673ffffffffffffffffffffffffffffffffffffffff1673ffffffffffffffffffffffffffffffffffffffff1681526020016002820154815260200160038201548152505081526020019060010190611e65565b505050915250909392505050565b611fa86126d6565b600a811115611fe3576040517f08c379a000000000000000000000000000000000000000000000000000000000815260040161083590614437565b600e8190556040517f9f05019b28170e4df6898fc0e7ecc720db8d696ae9286d763d89c807c6a5e9ee9061201a903390849061430d565b60405180910390a150565b61202d6126d6565b73ffffffffffffffffffffffffffffffffffffffff811661207a576040517f08c379a000000000000000000000000000000000000000000000000000000000815260040161083590614407565b61208381612727565b50565b60007fffffffff0000000000000000000000000000000000000000000000000000000082167f780e9d630000000000000000000000000000000000000000000000000000000014806106f657506106f6826129f4565b60008181526004602052604090205473ffffffffffffffffffffffffffffffffffffffff16612083576040517f08c379a0000000000000000000000000000000000000000000000000000000008152600401610835906144f7565b600081815260066020526040902080547fffffffffffffffffffffffff00000000000000000000000000000000000000001673ffffffffffffffffffffffffffffffffffffffff84169081179091558190612191826112eb565b73ffffffffffffffffffffffffffffffffffffffff167f8c5be1e5ebec7d5bd14f71427d1e84f3dd0314c0f7b2291e5b200ac8c7c3b92560405160405180910390a45050565b6000806121e3836112eb565b90508073ffffffffffffffffffffffffffffffffffffffff168473ffffffffffffffffffffffffffffffffffffffff161480612251575073ffffffffffffffffffffffffffffffffffffffff80821660009081526007602090815260408083209388168352929052205460ff165b8061228f57508373ffffffffffffffffffffffffffffffffffffffff166122778461078e565b73ffffffffffffffffffffffffffffffffffffffff16145b949350505050565b8273ffffffffffffffffffffffffffffffffffffffff166122b7826112eb565b73ffffffffffffffffffffffffffffffffffffffff1614612304576040517f08c379a000000000000000000000000000000000000000000000000000000000815260040161083590614417565b73ffffffffffffffffffffffffffffffffffffffff8216612351576040517f08c379a000000000000000000000000000000000000000000000000000000000815260040161083590614457565b61235c838383612ad7565b612367600082612137565b73ffffffffffffffffffffffffffffffffffffffff8316600090815260056020526040812080546001929061239d908490614644565b909155505073ffffffffffffffffffffffffffffffffffffffff821660009081526005602052604081208054600192906123d89084906145db565b909155505060008181526004602052604080822080547fffffffffffffffffffffffff00000000000000000000000000000000000000001673ffffffffffffffffffffffffffffffffffffffff86811691821790925591518493918716917fddf252ad1be2c89b69c2b068fc378daa952ba7f163c4a11628f55a4df523b3ef91a4505050565b6124683383612ae2565b6113ed8282612afc565b6000828152600f6020908152604091829020600481018054845160a081019095528085529193919290919081018560038111156124d8577f4e487b7100000000000000000000000000000000000000000000000000000000600052602160045260246000fd5b8152336020808301919091526001808701546040840152426060909301929092528354808301855560009485529381902083516004909502019384558201518382018054939493919290917fffffffffffffffffffffffffffffffffffffffffffffffffffffffffffffff00169083600381111561257f577f4e487b7100000000000000000000000000000000000000000000000000000000600052602160045260246000fd5b0217905550604082015160018201805473ffffffffffffffffffffffffffffffffffffffff909216610100027fffffffffffffffffffffff0000000000000000000000000000000000000000ff9092169190911790556060820151600282015560809091015160039091015550505050565b600081815260116020526040812054829060ff1661263b576040517f08c379a000000000000000000000000000000000000000000000000000000000815260040161083590614477565b6000838152600f602052604090206003015474010000000000000000000000000000000000000000900460ff1661269e576040517f08c379a000000000000000000000000000000000000000000000000000000000815260040161083590614497565b6000838152600f60205260408120600101546126bc906064906145f3565b9050600e54816126cc9190614607565b9250505b50919050565b60005473ffffffffffffffffffffffffffffffffffffffff1633146113d1576040517f08c379a0000000000000000000000000000000000000000000000000000000008152600401610835906144e7565b6000805473ffffffffffffffffffffffffffffffffffffffff8381167fffffffffffffffffffffffff0000000000000000000000000000000000000000831681178455604051919092169283917f8be0079c531659141344cd1fd0a4f28419497f9722a3daafe3b4186f6b6457e09190a35050565b8173ffffffffffffffffffffffffffffffffffffffff168373ffffffffffffffffffffffffffffffffffffffff161415612802576040517f08c379a000000000000000000000000000000000000000000000000000000000815260040161083590614467565b73ffffffffffffffffffffffffffffffffffffffff8381166000818152600760209081526040808320948716808452949091529081902080547fffffffffffffffffffffffffffffffffffffffffffffffffffffffffffffff0016851515179055517f17307eab39ab6107e8899845ad3d59bd9653f200f220920489ca2b5937696c3190612891908590614339565b60405180910390a3505050565b6128a9848484612297565b6128b584848484612b76565b611614576040517f08c379a0000000000000000000000000000000000000000000000000000000008152600401610835906143f7565b60606128f6826120dc565b6000828152600c60205260408120805461290f906146fb565b80601f016020809104026020016040519081016040528092919081815260200182805461293b906146fb565b80156129885780601f1061295d57610100808354040283529160200191612988565b820191906000526020600020905b81548152906001019060200180831161296b57829003601f168201915b5050505050905060006129a660408051602081019091526000815290565b90508051600014156129b9575092915050565b8151156129eb5780826040516020016129d39291906142a5565b60405160208183030381529060405292505050919050565b6126cc84612d1f565b60007fffffffff0000000000000000000000000000000000000000000000000000000082167f80ac58cd000000000000000000000000000000000000000000000000000000001480612a8757507fffffffff0000000000000000000000000000000000000000000000000000000082167f5b5e139f00000000000000000000000000000000000000000000000000000000145b806106f657507f01ffc9a7000000000000000000000000000000000000000000000000000000007fffffffff000000000000000000000000000000000000000000000000000000008316146106f6565b6108a7838383612d93565b6113ed828260405180602001604052806000815250612e99565b60008281526004602052604090205473ffffffffffffffffffffffffffffffffffffffff16612b57576040517f08c379a0000000000000000000000000000000000000000000000000000000008152600401610835906144b7565b6000828152600c6020908152604090912082516108a792840190613400565b600073ffffffffffffffffffffffffffffffffffffffff84163b15612d14576040517f150b7a0200000000000000000000000000000000000000000000000000000000815273ffffffffffffffffffffffffffffffffffffffff85169063150b7a0290612bed9033908990889088906004016142c9565b602060405180830381600087803b158015612c0757600080fd5b505af1925050508015612c55575060408051601f3d9081017fffffffffffffffffffffffffffffffffffffffffffffffffffffffffffffffe0168201909252612c5291810190613811565b60015b612cc9573d808015612c83576040519150601f19603f3d011682016040523d82523d6000602084013e612c88565b606091505b508051612cc1576040517f08c379a0000000000000000000000000000000000000000000000000000000008152600401610835906143f7565b805181602001fd5b7fffffffff00000000000000000000000000000000000000000000000000000000167f150b7a020000000000000000000000000000000000000000000000000000000014905061228f565b506001949350505050565b6060612d2a826120dc565b6000612d4160408051602081019091526000815290565b90506000815111612d615760405180602001604052806000815250612d8c565b80612d6b84612ee6565b604051602001612d7c9291906142a5565b6040516020818303038152906040525b9392505050565b73ffffffffffffffffffffffffffffffffffffffff8316612dfb57612df681600a80546000838152600b60205260408120829055600182018355919091527fc65a7bb8d6351c1cf70c95a316cc6a92839c986682d98bc35f958f4883f9d2a80155565b612e38565b8173ffffffffffffffffffffffffffffffffffffffff168373ffffffffffffffffffffffffffffffffffffffff1614612e3857612e388382613066565b73ffffffffffffffffffffffffffffffffffffffff8216612e5c576108a78161311d565b8273ffffffffffffffffffffffffffffffffffffffff168273ffffffffffffffffffffffffffffffffffffffff16146108a7576108a78282613241565b612ea38383613292565b612eb06000848484612b76565b6108a7576040517f08c379a0000000000000000000000000000000000000000000000000000000008152600401610835906143f7565b606081612f2657505060408051808201909152600181527f3000000000000000000000000000000000000000000000000000000000000000602082015290565b8160005b8115612f505780612f3a8161476d565b9150612f499050600a836145f3565b9150612f2a565b60008167ffffffffffffffff811115612f92577f4e487b7100000000000000000000000000000000000000000000000000000000600052604160045260246000fd5b6040519080825280601f01601f191660200182016040528015612fbc576020820181803683370190505b5090505b841561228f57612fd1600183614644565b9150612fde600a866147a6565b612fe99060306145db565b60f81b818381518110613025577f4e487b7100000000000000000000000000000000000000000000000000000000600052603260045260246000fd5b60200101907effffffffffffffffffffffffffffffffffffffffffffffffffffffffffffff1916908160001a90535061305f600a866145f3565b9450612fc0565b6000600161307384611347565b61307d9190614644565b6000838152600960205260409020549091508082146130dd5773ffffffffffffffffffffffffffffffffffffffff841660009081526008602090815260408083208584528252808320548484528184208190558352600990915290208190555b50600091825260096020908152604080842084905573ffffffffffffffffffffffffffffffffffffffff9094168352600881528383209183525290812055565b600a5460009061312f90600190614644565b6000838152600b6020526040812054600a805493945090928490811061317e577f4e487b7100000000000000000000000000000000000000000000000000000000600052603260045260246000fd5b9060005260206000200154905080600a83815481106131c6577f4e487b7100000000000000000000000000000000000000000000000000000000600052603260045260246000fd5b6000918252602080832090910192909255828152600b9091526040808220849055858252812055600a805480613225577f4e487b7100000000000000000000000000000000000000000000000000000000600052603160045260246000fd5b6001900381819060005260206000200160009055905550505050565b600061324c83611347565b73ffffffffffffffffffffffffffffffffffffffff9093166000908152600860209081526040808320868452825280832085905593825260099052919091209190915550565b73ffffffffffffffffffffffffffffffffffffffff82166132df576040517f08c379a0000000000000000000000000000000000000000000000000000000008152600401610835906144d7565b60008181526004602052604090205473ffffffffffffffffffffffffffffffffffffffff161561333b576040517f08c379a000000000000000000000000000000000000000000000000000000000815260040161083590614427565b61334760008383612ad7565b73ffffffffffffffffffffffffffffffffffffffff8216600090815260056020526040812080546001929061337d9084906145db565b909155505060008181526004602052604080822080547fffffffffffffffffffffffff00000000000000000000000000000000000000001673ffffffffffffffffffffffffffffffffffffffff861690811790915590518392907fddf252ad1be2c89b69c2b068fc378daa952ba7f163c4a11628f55a4df523b3ef908290a45050565b82805461340c906146fb565b90600052602060002090601f01602090048101928261342e5760008555613474565b82601f1061344757805160ff1916838001178555613474565b82800160010185558215613474579182015b82811115613474578251825591602001919060010190613459565b50613480929150613591565b5090565b828054613490906146fb565b90600052602060002090601f0160209004810192826134b25760008555613474565b82601f106134c35780548555613474565b8280016001018555821561347457600052602060002091601f016020900482015b828111156134745782548255916001019190600101906134e4565b82805461350b906146fb565b90600052602060002090601f01602090048101928261352d5760008555613474565b82601f10613564578280017fffffffffffffffffffffffffffffffffffffffffffffffffffffffffffffff00823516178555613474565b82800160010185558215613474579182015b82811115613474578235825591602001919060010190613576565b5b808211156134805760008155600101613592565b60006135b96135b484614592565b614576565b9050828152602081018484840111156135d157600080fd5b6135dc84828561468e565b509392505050565b80356106f6816148b5565b80356106f6816148c9565b80356106f6816148d1565b80516106f6816148d1565b600082601f830112613620578081fd5b813561228f8482602086016135a6565b60008083601f840112613641578182fd5b50813567ffffffffffffffff811115613658578182fd5b60208301915083600182028301111561367057600080fd5b9250929050565b80356106f6816148f9565b600060208284031215613693578081fd5b612d8c838284016135e4565b600080604083850312156136b1578081fd5b6136bd848285016135e4565b915060206136cd858286016135e4565b9150509250929050565b6000806000606084860312156136eb578081fd5b6136f7858286016135e4565b92506020613707868287016135e4565b925050604061371886828701613677565b9150509250925092565b60008060008060808587031215613737578081fd5b613743868287016135e4565b93506020613753878288016135e4565b935050604061376487828801613677565b925050606085013567ffffffffffffffff811115613780578182fd5b61378c87828801613610565b91505092959194509250565b600080604083850312156137aa578182fd5b6137b6848385016135e4565b915060206136cd858286016135ef565b600080604083850312156137d8578182fd5b6137e4848385016135e4565b915060206136cd85828601613677565b600060208284031215613805578081fd5b612d8c838284016135fa565b600060208284031215613822578081fd5b612d8c83828401613605565b60006020828403121561383f578081fd5b8082013567ffffffffffffffff811115613857578182fd5b61228f84828501613610565b60008060008060808587031215613878578384fd5b8385013567ffffffffffffffff811115613890578485fd5b61389c87828801613610565b945050602085013567ffffffffffffffff8111156138b8578384fd5b6138c487828801613610565b935050604085013567ffffffffffffffff8111156138e0578283fd5b6138ec87828801613610565b925050606061378c87828801613677565b60006020828403121561390e578081fd5b612d8c83828401613677565b6000806000806060858703121561392f578384fd5b61393b86858701613677565b9350602085013567ffffffffffffffff811115613956578384fd5b61396287828801613630565b9350935050604061378c87828801613677565b6000612d8c83836141b3565b61398b8282614241565b5060a00190565b61399b8161465b565b82525050565b60006139ab825190565b808452602084019350836020820285016139c58560200190565b845b848110156139f857838303885281516139e08482613975565b935050602082016020989098019791506001016139c7565b50909695505050505050565b6000613a0e825190565b8084526020938401938301825b82811015613a40578151613a2f8782613981565b965050602082019150600101613a1b565b5093949350505050565b80151561399b565b6000613a5c825190565b808452602084019350613a7381856020860161469a565b601f017fffffffffffffffffffffffffffffffffffffffffffffffffffffffffffffffe0169290920192915050565b61399b81614683565b6000613ab5825190565b613ac381856020860161469a565b9290920192915050565b60008154613ada816146fb565b808552602085019450600182168015613afa5760018114613b2a57613b58565b7fffffffffffffffffffffffffffffffffffffffffffffffffffffffffffffff0083168652602086019350613b58565b60008581526020902060005b83811015613b5257815488820152600190910190602001613b36565b87019450505b50505092915050565b600f8152602081017f496e76616c696420616464726573730000000000000000000000000000000000815290505b60200190565b602b8152602081017f455243373231456e756d657261626c653a206f776e657220696e646578206f7581527f74206f6620626f756e6473000000000000000000000000000000000000000000602082015290505b60400190565b60328152602081017f4552433732313a207472616e7366657220746f206e6f6e20455243373231526581527f63656976657220696d706c656d656e746572000000000000000000000000000060208201529050613be9565b60268152602081017f4f776e61626c653a206e6577206f776e657220697320746865207a65726f206181527f646472657373000000000000000000000000000000000000000000000000000060208201529050613be9565b60258152602081017f4552433732313a207472616e736665722066726f6d20696e636f72726563742081527f6f776e657200000000000000000000000000000000000000000000000000000060208201529050613be9565b601c8152602081017f4552433732313a20746f6b656e20616c7265616479206d696e7465640000000081529050613b8f565b601c8152602081017f4665652063616e277420626520686967686572207468616e203130250000000081529050613b8f565b60108152602081017f414d4f554e545f4e4f545f455155414c0000000000000000000000000000000081529050613b8f565b60248152602081017f4552433732313a207472616e7366657220746f20746865207a65726f2061646481527f726573730000000000000000000000000000000000000000000000000000000060208201529050613be9565b60198152602081017f4552433732313a20617070726f766520746f2063616c6c65720000000000000081529050613b8f565b601a8152602081017f5175657279206f66206e6f6e6578697374656e7420746f6b656e00000000000081529050613b8f565b600f8152602081017f4f6e6c79206974656d206f776e6572000000000000000000000000000000000081529050613b8f565b60118152602081017f4974656d2069736e2774206c697374656400000000000000000000000000000081529050613b8f565b60298152602081017f4552433732313a2061646472657373207a65726f206973206e6f74206120766181527f6c6964206f776e6572000000000000000000000000000000000000000000000060208201529050613be9565b602e8152602081017f45524337323155524953746f726167653a2055524920736574206f66206e6f6e81527f6578697374656e7420746f6b656e00000000000000000000000000000000000060208201529050613be9565b603e8152602081017f4552433732313a20617070726f76652063616c6c6572206973206e6f7420746f81527f6b656e206f776e6572206e6f7220617070726f76656420666f7220616c6c000060208201529050613be9565b60208082527f4552433732313a206d696e7420746f20746865207a65726f20616464726573739101908152613b8f565b60208082527f4f776e61626c653a2063616c6c6572206973206e6f7420746865206f776e65729101908152613b8f565b60188152602081017f4552433732313a20696e76616c696420746f6b656e204944000000000000000081529050613b8f565b60218152602081017f4552433732313a20617070726f76616c20746f2063757272656e74206f776e6581527f720000000000000000000000000000000000000000000000000000000000000060208201529050613be9565b60138152602081017f4974656d20616c7265616479206c69737465640000000000000000000000000081529050613b8f565b602c8152602081017f455243373231456e756d657261626c653a20676c6f62616c20696e646578206f81527f7574206f6620626f756e6473000000000000000000000000000000000000000060208201529050613be9565b602e8152602081017f4552433732313a2063616c6c6572206973206e6f7420746f6b656e206f776e6581527f72206e6f7220617070726f76656400000000000000000000000000000000000060208201529050613be9565b601f8152602081017f5265656e7472616e637947756172643a207265656e7472616e742063616c6c0081529050613b8f565b805160c0808452600091908401906141cb8282613a52565b91505060208301516141e06020860182614295565b50604083015184820360408601526141f88282613a52565b915050606083015161420d6060860182613992565b5060808301516142206080860182613a4a565b5060a083015184820360a08601526142388282613a04565b95945050505050565b805161424d8382614295565b5060208101516142606020840182613aa2565b5060408101516142736040840182613992565b5060608101516142866060840182614295565b5060808101516108a760808401825b8061399b565b6106f68183613aab565b6142af8184613aab565b9050612d8c8183613aab565b602081016106f68284613992565b608081016142d78287613992565b6142e46020830186613992565b6142f16040830185614295565b81810360608301526143038184613a52565b9695505050505050565b6040810161431b8285613992565b612d8c6020830184614295565b60208082528101612d8c81846139a1565b602081016106f68284613a4a565b60208082528101612d8c8184613a52565b60a080825281016143698188613a52565b90506143786020830187614295565b818103604083015261438a8186613a52565b90506143996060830185613992565b6143036080830184613a4a565b60208082528101612d8c8184613acd565b604080825281016143c88185613acd565b9050612d8c6020830184614295565b602080825281016106f681613b61565b602080825281016106f681613b95565b602080825281016106f681613bef565b602080825281016106f681613c47565b602080825281016106f681613c9f565b602080825281016106f681613cf7565b602080825281016106f681613d29565b602080825281016106f681613d5b565b602080825281016106f681613d8d565b602080825281016106f681613de5565b602080825281016106f681613e17565b602080825281016106f681613e49565b602080825281016106f681613e7b565b602080825281016106f681613ead565b602080825281016106f681613f05565b602080825281016106f681613f5d565b602080825281016106f681613fb5565b602080825281016106f681613fe5565b602080825281016106f681614015565b602080825281016106f681614047565b602080825281016106f68161409f565b602080825281016106f6816140d1565b602080825281016106f681614129565b602080825281016106f681614181565b60208082528101612d8c81846141b3565b602081016106f68284614295565b600061458160405190565b905061458d8282614722565b919050565b600067ffffffffffffffff8211156145ac576145ac614876565b7fffffffffffffffffffffffffffffffffffffffffffffffffffffffffffffffe0601f83011660200192915050565b600082198211156145ee576145ee6147ba565b500190565b600082614602576146026147e9565b500490565b6000817fffffffffffffffffffffffffffffffffffffffffffffffffffffffffffffffff048311821515161561463f5761463f6147ba565b500290565b600082821015614656576146566147ba565b500390565b600073ffffffffffffffffffffffffffffffffffffffff82166106f6565b8061458d816148a5565b60006106f682614679565b82818337506000910152565b60005b838110156146b557818101518382015260200161469d565b838111156116145750506000910152565b6000816146d5576146d56147ba565b507fffffffffffffffffffffffffffffffffffffffffffffffffffffffffffffffff0190565b60028104600182168061470f57607f821691505b602082108114156126d0576126d0614847565b7fffffffffffffffffffffffffffffffffffffffffffffffffffffffffffffffe0601f830116810181811067ffffffffffffffff8211171561476657614766614876565b6040525050565b60007fffffffffffffffffffffffffffffffffffffffffffffffffffffffffffffffff82141561479f5761479f6147ba565b5060010190565b6000826147b5576147b56147e9565b500690565b7f4e487b7100000000000000000000000000000000000000000000000000000000600052601160045260246000fd5b7f4e487b7100000000000000000000000000000000000000000000000000000000600052601260045260246000fd5b7f4e487b7100000000000000000000000000000000000000000000000000000000600052602160045260246000fd5b7f4e487b7100000000000000000000000000000000000000000000000000000000600052602260045260246000fd5b7f4e487b7100000000000000000000000000000000000000000000000000000000600052604160045260246000fd5b6004811061208357612083614818565b6148be8161465b565b811461208357600080fd5b8015156148be565b7fffffffff0000000000000000000000000000000000000000000000000000000081166148be565b806148be56fea2646970667358221220b6bbb1349abcb2dd9fd1ac5b3208aa897aa1bd27484ff0d76b535db98261d31664736f6c63430008040033",
  "linkReferences": {},
  "deployedLinkReferences": {}
}